{
  "contractName": "MPMS",
  "abi": [
    {
      "inputs": [],
      "stateMutability": "nonpayable",
      "type": "constructor"
    },
    {
      "anonymous": false,
      "inputs": [
        {
          "indexed": true,
          "internalType": "uint256",
          "name": "caseId",
          "type": "uint256"
        },
        {
          "indexed": false,
          "internalType": "address",
          "name": "reporter",
          "type": "address"
        },
        {
          "indexed": false,
          "internalType": "address",
          "name": "investigator",
          "type": "address"
        },
        {
          "indexed": false,
          "internalType": "address",
          "name": "admin",
          "type": "address"
        },
        {
          "indexed": false,
          "internalType": "string",
          "name": "slot",
          "type": "string"
        }
      ],
      "name": "AppointmentBooked",
      "type": "event"
    },
    {
      "anonymous": false,
      "inputs": [
        {
          "indexed": true,
          "internalType": "uint256",
          "name": "caseId",
          "type": "uint256"
        },
        {
          "indexed": false,
          "internalType": "address",
          "name": "investigator",
          "type": "address"
        },
        {
          "indexed": false,
          "internalType": "string",
          "name": "note",
          "type": "string"
        }
      ],
      "name": "FoundReported",
      "type": "event"
    },
    {
      "inputs": [
        {
          "internalType": "uint256",
          "name": "",
          "type": "uint256"
        }
      ],
      "name": "admins",
      "outputs": [
        {
          "internalType": "address",
          "name": "",
          "type": "address"
        }
      ],
      "stateMutability": "view",
      "type": "function",
      "constant": true
    },
    {
      "inputs": [
        {
          "internalType": "uint256",
          "name": "",
          "type": "uint256"
        }
      ],
      "name": "allCaseIds",
      "outputs": [
        {
          "internalType": "uint256",
          "name": "",
          "type": "uint256"
        }
      ],
      "stateMutability": "view",
      "type": "function",
      "constant": true
    },
    {
      "inputs": [],
      "name": "contractOwner",
      "outputs": [
        {
          "internalType": "address",
          "name": "",
          "type": "address"
        }
      ],
      "stateMutability": "view",
      "type": "function",
      "constant": true
    },
    {
      "inputs": [
        {
          "internalType": "uint256",
          "name": "",
          "type": "uint256"
        }
      ],
      "name": "divisions",
      "outputs": [
        {
          "internalType": "string",
          "name": "",
          "type": "string"
        }
      ],
      "stateMutability": "view",
      "type": "function",
      "constant": true
    },
    {
      "inputs": [
        {
          "internalType": "uint256",
          "name": "",
          "type": "uint256"
        }
      ],
      "name": "foundAlerts",
      "outputs": [
        {
          "internalType": "uint256",
          "name": "caseId",
          "type": "uint256"
        },
        {
          "internalType": "address",
          "name": "investigator",
          "type": "address"
        },
        {
          "internalType": "string",
          "name": "note",
          "type": "string"
        },
        {
          "internalType": "bool",
          "name": "reviewed",
          "type": "bool"
        }
      ],
      "stateMutability": "view",
      "type": "function",
      "constant": true
    },
    {
      "inputs": [
        {
          "internalType": "address",
          "name": "",
          "type": "address"
        },
        {
          "internalType": "uint256",
          "name": "",
          "type": "uint256"
        }
      ],
      "name": "investigatorAppointments",
      "outputs": [
        {
          "internalType": "uint256",
          "name": "caseId",
          "type": "uint256"
        },
        {
          "internalType": "address",
          "name": "reporter",
          "type": "address"
        },
        {
          "internalType": "string",
          "name": "slot",
          "type": "string"
        },
        {
          "internalType": "uint256",
          "name": "startMinutes",
          "type": "uint256"
        },
        {
          "internalType": "uint256",
          "name": "endMinutes",
          "type": "uint256"
        },
        {
          "internalType": "address",
          "name": "paidAdmin",
          "type": "address"
        }
      ],
      "stateMutability": "view",
      "type": "function",
      "constant": true
    },
    {
      "inputs": [
        {
          "internalType": "address",
          "name": "",
          "type": "address"
        }
      ],
      "name": "isAdmin",
      "outputs": [
        {
          "internalType": "bool",
          "name": "",
          "type": "bool"
        }
      ],
      "stateMutability": "view",
      "type": "function",
      "constant": true
    },
    {
      "inputs": [
        {
          "internalType": "uint256",
          "name": "",
          "type": "uint256"
        }
      ],
      "name": "missingCases",
      "outputs": [
        {
          "internalType": "string",
          "name": "name",
          "type": "string"
        },
        {
          "internalType": "uint256",
          "name": "age",
          "type": "uint256"
        },
        {
          "internalType": "uint256",
          "name": "height",
          "type": "uint256"
        },
        {
          "internalType": "enum MPMS.Status",
          "name": "status",
          "type": "uint8"
        },
        {
          "internalType": "string",
          "name": "description",
          "type": "string"
        },
        {
          "internalType": "string",
          "name": "division",
          "type": "string"
        },
        {
          "internalType": "string",
          "name": "contactNumber",
          "type": "string"
        },
        {
          "internalType": "string",
          "name": "urgencyLevel",
          "type": "string"
        },
        {
          "internalType": "bool",
          "name": "exists",
          "type": "bool"
        }
      ],
      "stateMutability": "view",
      "type": "function",
      "constant": true
    },
    {
      "inputs": [
        {
          "internalType": "address",
          "name": "",
          "type": "address"
        }
      ],
      "name": "registeredUsers",
      "outputs": [
        {
          "internalType": "uint256",
          "name": "NID",
          "type": "uint256"
        },
        {
          "internalType": "string",
          "name": "username",
          "type": "string"
        },
        {
          "internalType": "enum MPMS.Roles",
          "name": "role",
          "type": "uint8"
        },
        {
          "internalType": "string",
          "name": "userAddress",
          "type": "string"
        },
        {
          "internalType": "bool",
          "name": "registered",
          "type": "bool"
        }
      ],
      "stateMutability": "view",
      "type": "function",
      "constant": true
    },
    {
      "inputs": [
        {
          "internalType": "string",
          "name": "",
          "type": "string"
        }
      ],
      "name": "slotBooked",
      "outputs": [
        {
          "internalType": "bool",
          "name": "",
          "type": "bool"
        }
      ],
      "stateMutability": "view",
      "type": "function",
      "constant": true
    },
    {
      "inputs": [
        {
          "internalType": "uint256",
          "name": "",
          "type": "uint256"
        }
      ],
      "name": "userAddresses",
      "outputs": [
        {
          "internalType": "address",
          "name": "",
          "type": "address"
        }
      ],
      "stateMutability": "view",
      "type": "function",
      "constant": true
    },
    {
      "inputs": [
        {
          "internalType": "uint256",
          "name": "_nid",
          "type": "uint256"
        },
        {
          "internalType": "string",
          "name": "_name",
          "type": "string"
        },
        {
          "internalType": "enum MPMS.Roles",
          "name": "_role",
          "type": "uint8"
        },
        {
          "internalType": "string",
          "name": "_address",
          "type": "string"
        }
      ],
      "name": "registerUser",
      "outputs": [],
      "stateMutability": "nonpayable",
      "type": "function"
    },
    {
      "inputs": [
        {
          "internalType": "string",
          "name": "_name",
          "type": "string"
        },
        {
          "internalType": "uint256",
          "name": "_age",
          "type": "uint256"
        },
        {
          "internalType": "uint256",
          "name": "_height",
          "type": "uint256"
        },
        {
          "internalType": "string",
          "name": "_desc",
          "type": "string"
        },
        {
          "internalType": "string",
          "name": "_division",
          "type": "string"
        },
        {
          "internalType": "string",
          "name": "_contact",
          "type": "string"
        }
      ],
      "name": "addMissingPerson",
      "outputs": [],
      "stateMutability": "nonpayable",
      "type": "function"
    },
    {
      "inputs": [
        {
          "internalType": "uint256",
          "name": "_caseId",
          "type": "uint256"
        },
        {
          "internalType": "enum MPMS.Status",
          "name": "_newStatus",
          "type": "uint8"
        }
      ],
      "name": "updateStatus",
      "outputs": [],
      "stateMutability": "nonpayable",
      "type": "function"
    },
    {
      "inputs": [
        {
          "internalType": "uint256",
          "name": "_caseId",
          "type": "uint256"
        },
        {
          "internalType": "address",
          "name": "_investigator",
          "type": "address"
        }
      ],
      "name": "assignInvestigator",
      "outputs": [],
      "stateMutability": "nonpayable",
      "type": "function"
    },
    {
      "inputs": [
        {
          "internalType": "uint256",
          "name": "_caseId",
          "type": "uint256"
        },
        {
          "internalType": "address",
          "name": "_investigator",
          "type": "address"
        }
      ],
      "name": "isInvestigatorAssigned",
      "outputs": [
        {
          "internalType": "bool",
          "name": "",
          "type": "bool"
        }
      ],
      "stateMutability": "view",
      "type": "function",
      "constant": true
    },
    {
      "inputs": [
        {
          "internalType": "string",
          "name": "division",
          "type": "string"
        }
      ],
      "name": "getMissingCountByDivision",
      "outputs": [
        {
          "internalType": "uint256",
          "name": "",
          "type": "uint256"
        }
      ],
      "stateMutability": "view",
      "type": "function",
      "constant": true
    },
    {
      "inputs": [
        {
          "internalType": "bool",
          "name": "sortDescending",
          "type": "bool"
        }
      ],
      "name": "getAllMissingCounts",
      "outputs": [
        {
          "internalType": "string[]",
          "name": "",
          "type": "string[]"
        },
        {
          "internalType": "uint256[]",
          "name": "",
          "type": "uint256[]"
        }
      ],
      "stateMutability": "view",
      "type": "function",
      "constant": true
    },
    {
      "inputs": [
        {
          "internalType": "uint256",
          "name": "_caseId",
          "type": "uint256"
        },
        {
          "internalType": "address",
          "name": "_investigator",
          "type": "address"
        },
        {
          "internalType": "address",
          "name": "_selectedAdmin",
          "type": "address"
        },
        {
          "internalType": "string",
          "name": "_slot",
          "type": "string"
        }
      ],
      "name": "bookAppointment",
      "outputs": [],
      "stateMutability": "payable",
      "type": "function",
      "payable": true
    },
    {
      "inputs": [
        {
          "internalType": "address",
          "name": "_investigator",
          "type": "address"
        }
      ],
      "name": "getInvestigatorSchedule",
      "outputs": [
        {
          "components": [
            {
              "internalType": "uint256",
              "name": "caseId",
              "type": "uint256"
            },
            {
              "internalType": "address",
              "name": "reporter",
              "type": "address"
            },
            {
              "internalType": "string",
              "name": "slot",
              "type": "string"
            },
            {
              "internalType": "uint256",
              "name": "startMinutes",
              "type": "uint256"
            },
            {
              "internalType": "uint256",
              "name": "endMinutes",
              "type": "uint256"
            },
            {
              "internalType": "address",
              "name": "paidAdmin",
              "type": "address"
            }
          ],
          "internalType": "struct MPMS.Appointment[]",
          "name": "",
          "type": "tuple[]"
        }
      ],
      "stateMutability": "view",
      "type": "function",
      "constant": true
    },
    {
      "inputs": [
        {
          "internalType": "uint256",
          "name": "_caseId",
          "type": "uint256"
        },
        {
          "internalType": "string",
          "name": "_note",
          "type": "string"
        }
      ],
      "name": "reportFoundPerson",
      "outputs": [],
      "stateMutability": "nonpayable",
      "type": "function"
    }
  ],
  "bytecode": "0x60806040526040518061010001604052806040518060400160405280600581526020017f4468616b6100000000000000000000000000000000000000000000000000000081525081526020016040518060400160405280600a81526020017f43686174746f6772616d0000000000000000000000000000000000000000000081525081526020016040518060400160405280600681526020017f4b68756c6e61000000000000000000000000000000000000000000000000000081525081526020016040518060400160405280600881526020017f52616a736861686900000000000000000000000000000000000000000000000081525081526020016040518060400160405280600781526020017f4261726973616c0000000000000000000000000000000000000000000000000081525081526020016040518060400160405280600681526020017f53796c686574000000000000000000000000000000000000000000000000000081525081526020016040518060400160405280600781526020017f52616e677075720000000000000000000000000000000000000000000000000081525081526020016040518060400160405280600a81526020017f4d796d656e73696e6768000000000000000000000000000000000000000000008152508152506006906008620001f89291906200024d565b503480156200020657600080fd5b50336000806101000a81548173ffffffffffffffffffffffffffffffffffffffff021916908373ffffffffffffffffffffffffffffffffffffffff1602179055506200069b565b8280548282559060005260206000209081019282156200029a579160200282015b8281111562000299578251829081620002889190620005b4565b50916020019190600101906200026e565b5b509050620002a99190620002ad565b5090565b5b80821115620002d15760008181620002c79190620002d5565b50600101620002ae565b5090565b508054620002e390620003a3565b6000825580601f10620002f7575062000318565b601f0160209004906000526020600020908101906200031791906200031b565b5b50565b5b80821115620003365760008160009055506001016200031c565b5090565b600081519050919050565b7f4e487b7100000000000000000000000000000000000000000000000000000000600052604160045260246000fd5b7f4e487b7100000000000000000000000000000000000000000000000000000000600052602260045260246000fd5b60006002820490506001821680620003bc57607f821691505b602082108103620003d257620003d162000374565b5b50919050565b60008190508160005260206000209050919050565b60006020601f8301049050919050565b600082821b905092915050565b6000600883026200043c7fffffffffffffffffffffffffffffffffffffffffffffffffffffffffffffffff82620003fd565b620004488683620003fd565b95508019841693508086168417925050509392505050565b6000819050919050565b6000819050919050565b6000620004956200048f620004898462000460565b6200046a565b62000460565b9050919050565b6000819050919050565b620004b18362000474565b620004c9620004c0826200049c565b8484546200040a565b825550505050565b600090565b620004e0620004d1565b620004ed818484620004a6565b505050565b5b81811015620005155762000509600082620004d6565b600181019050620004f3565b5050565b601f82111562000564576200052e81620003d8565b6200053984620003ed565b8101602085101562000549578190505b620005616200055885620003ed565b830182620004f2565b50505b505050565b600082821c905092915050565b6000620005896000198460080262000569565b1980831691505092915050565b6000620005a4838362000576565b9150826002028217905092915050565b620005bf826200033a565b67ffffffffffffffff811115620005db57620005da62000345565b5b620005e78254620003a3565b620005f482828562000519565b600060209050601f8311600181146200062c576000841562000617578287015190505b62000623858262000596565b86555062000693565b601f1984166200063c86620003d8565b60005b8281101562000666578489015182556001820191506020850194506020810190506200063f565b8683101562000686578489015162000682601f89168262000576565b8355505b6001600288020188555050505b505050505050565b615caa80620006ab6000396000f3fe60806040526004361061012a5760003560e01c806354c079b3116100ab578063ce606ee01161006f578063ce606ee01461046d578063dc32a81e14610498578063e0f76e90146104c1578063e52844e914610506578063e582a7a614610548578063fb36cb1c146105855761012a565b806354c079b31461034c5780635f77d760146103895780636f1b1fcd146103b257806383db1247146103f05780639106581f1461042d5761012a565b806324d7806c116100f257806324d7806c146102505780632c0539011461028d578063392b75d8146102a95780633a1b3d31146102e6578063502c9bd51461030f5761012a565b80630e50cee51461012f57806314bfd6d014610170578063180105ac146101ad5780631c7a4dd0146101ea57806321f0e2af14610227575b600080fd5b34801561013b57600080fd5b5061015660048036038101906101519190613ca1565b6105ae565b604051610167959493929190613e09565b60405180910390f35b34801561017c57600080fd5b5061019760048036038101906101929190613e96565b61070e565b6040516101a49190613ed2565b60405180910390f35b3480156101b957600080fd5b506101d460048036038101906101cf9190613e96565b61074d565b6040516101e19190613eed565b60405180910390f35b3480156101f657600080fd5b50610211600480360381019061020c9190613e96565b6107f9565b60405161021e9190613f0f565b60405180910390f35b34801561023357600080fd5b5061024e6004803603810190610249919061405f565b61081d565b005b34801561025c57600080fd5b5061027760048036038101906102729190613ca1565b610bca565b60405161028491906140bb565b60405180910390f35b6102a760048036038101906102a291906140d6565b610bea565b005b3480156102b557600080fd5b506102d060048036038101906102cb9190614159565b6113b9565b6040516102dd91906140bb565b60405180910390f35b3480156102f257600080fd5b5061030d600480360381019061030891906141be565b611490565b005b34801561031b57600080fd5b5061033660048036038101906103319190613e96565b61178e565b6040516103439190613ed2565b60405180910390f35b34801561035857600080fd5b50610373600480360381019061036e91906141fe565b6117cd565b6040516103809190613f0f565b60405180910390f35b34801561039557600080fd5b506103b060048036038101906103ab91906142a7565b611918565b005b3480156103be57600080fd5b506103d960048036038101906103d491906143e3565b612013565b6040516103e79291906145da565b60405180910390f35b3480156103fc57600080fd5b50610417600480360381019061041291906141fe565b61243d565b60405161042491906140bb565b60405180910390f35b34801561043957600080fd5b50610454600480360381019061044f9190613e96565b612473565b6040516104649493929190614611565b60405180910390f35b34801561047957600080fd5b50610482612558565b60405161048f9190613ed2565b60405180910390f35b3480156104a457600080fd5b506104bf60048036038101906104ba9190614159565b61257c565b005b3480156104cd57600080fd5b506104e860048036038101906104e39190613e96565b6128a0565b6040516104fd999897969594939291906146a5565b60405180910390f35b34801561051257600080fd5b5061052d60048036038101906105289190614755565b612bb0565b60405161053f96959493929190614795565b60405180910390f35b34801561055457600080fd5b5061056f600480360381019061056a9190613ca1565b612cd1565b60405161057c9190614957565b60405180910390f35b34801561059157600080fd5b506105ac60048036038101906105a7919061499e565b612ecb565b005b60016020528060005260406000206000915090508060000154908060010180546105d790614a6c565b80601f016020809104026020016040519081016040528092919081815260200182805461060390614a6c565b80156106505780601f1061062557610100808354040283529160200191610650565b820191906000526020600020905b81548152906001019060200180831161063357829003601f168201915b5050505050908060020160009054906101000a900460ff169080600301805461067890614a6c565b80601f01602080910402602001604051908101604052809291908181526020018280546106a490614a6c565b80156106f15780601f106106c6576101008083540402835291602001916106f1565b820191906000526020600020905b8154815290600101906020018083116106d457829003601f168201915b5050505050908060040160009054906101000a900460ff16905085565b6008818154811061071e57600080fd5b906000526020600020016000915054906101000a900473ffffffffffffffffffffffffffffffffffffffff1681565b6006818154811061075d57600080fd5b90600052602060002001600091509050805461077890614a6c565b80601f01602080910402602001604051908101604052809291908181526020018280546107a490614a6c565b80156107f15780601f106107c6576101008083540402835291602001916107f1565b820191906000526020600020905b8154815290600101906020018083116107d457829003601f168201915b505050505081565b6005818154811061080957600080fd5b906000526020600020016000915090505481565b600160003373ffffffffffffffffffffffffffffffffffffffff1673ffffffffffffffffffffffffffffffffffffffff16815260200190815260200160002060040160009054906101000a900460ff166108ac576040517f08c379a00000000000000000000000000000000000000000000000000000000081526004016108a390614ae9565b60405180910390fd5b60028060028111156108c1576108c0613d77565b5b600160003373ffffffffffffffffffffffffffffffffffffffff1673ffffffffffffffffffffffffffffffffffffffff16815260200190815260200160002060020160009054906101000a900460ff16600281111561092357610922613d77565b5b14610963576040517f08c379a000000000000000000000000000000000000000000000000000000000815260040161095a90614b55565b60405180910390fd5b6003600084815260200190815260200160002060090160009054906101000a900460ff166109c6576040517f08c379a00000000000000000000000000000000000000000000000000000000081526004016109bd90614bc1565b60405180910390fd5b600060018111156109da576109d9613d77565b5b6003600085815260200190815260200160002060030160009054906101000a900460ff166001811115610a1057610a0f613d77565b5b14610a50576040517f08c379a0000000000000000000000000000000000000000000000000000000008152600401610a4790614c2d565b60405180910390fd5b6007600084815260200190815260200160002060030160009054906101000a900460ff1615610ab4576040517f08c379a0000000000000000000000000000000000000000000000000000000008152600401610aab90614c99565b60405180910390fd5b60405180608001604052808481526020013373ffffffffffffffffffffffffffffffffffffffff16815260200183815260200160001515815250600760008581526020019081526020016000206000820151816000015560208201518160010160006101000a81548173ffffffffffffffffffffffffffffffffffffffff021916908373ffffffffffffffffffffffffffffffffffffffff1602179055506040820151816002019081610b679190614e65565b5060608201518160030160006101000a81548160ff021916908315150217905550905050827fe281e1db4b5bc6b0edddf5de0d3204ddc4f008a54beab00198f5f57382794f073384604051610bbd929190614f37565b60405180910390a2505050565b60096020528060005260406000206000915054906101000a900460ff1681565b600160003373ffffffffffffffffffffffffffffffffffffffff1673ffffffffffffffffffffffffffffffffffffffff16815260200190815260200160002060040160009054906101000a900460ff16610c79576040517f08c379a0000000000000000000000000000000000000000000000000000000008152600401610c7090614ae9565b60405180910390fd5b6001806002811115610c8e57610c8d613d77565b5b600160003373ffffffffffffffffffffffffffffffffffffffff1673ffffffffffffffffffffffffffffffffffffffff16815260200190815260200160002060020160009054906101000a900460ff166002811115610cf057610cef613d77565b5b14610d30576040517f08c379a0000000000000000000000000000000000000000000000000000000008152600401610d2790614b55565b60405180910390fd5b600960008473ffffffffffffffffffffffffffffffffffffffff1673ffffffffffffffffffffffffffffffffffffffff16815260200190815260200160002060009054906101000a900460ff16610dbc576040517f08c379a0000000000000000000000000000000000000000000000000000000008152600401610db390614fb3565b60405180910390fd5b662386f26fc10000341015610e06576040517f08c379a0000000000000000000000000000000000000000000000000000000008152600401610dfd9061501f565b60405180910390fd5b6003600086815260200190815260200160002060090160009054906101000a900460ff16610e69576040517f08c379a0000000000000000000000000000000000000000000000000000000008152600401610e609061508b565b60405180910390fd5b60006001811115610e7d57610e7c613d77565b5b6003600087815260200190815260200160002060030160009054906101000a900460ff166001811115610eb357610eb2613d77565b5b14610ef3576040517f08c379a0000000000000000000000000000000000000000000000000000000008152600401610eea906150f7565b60405180910390fd5b600b82604051610f039190615153565b908152602001604051809103902060009054906101000a900460ff1615610f5f576040517f08c379a0000000000000000000000000000000000000000000000000000000008152600401610f56906151b6565b60405180910390fd5b600280811115610f7257610f71613d77565b5b600160008673ffffffffffffffffffffffffffffffffffffffff1673ffffffffffffffffffffffffffffffffffffffff16815260200190815260200160002060020160009054906101000a900460ff166002811115610fd457610fd3613d77565b5b14611014576040517f08c379a000000000000000000000000000000000000000000000000000000000815260040161100b90615222565b60405180910390fd5b61101d8261327b565b61105c576040517f08c379a00000000000000000000000000000000000000000000000000000000081526004016110539061528e565b60405180910390fd5b600080611068846136be565b915091506000600a60008873ffffffffffffffffffffffffffffffffffffffff1673ffffffffffffffffffffffffffffffffffffffff168152602001908152602001600020905060005b818054905081101561116d5760008282815481106110d3576110d26152ae565b5b906000526020600020906006020160040154851080156111165750828281548110611101576111006152ae565b5b90600052602060002090600602016003015484115b90508015611159576040517f08c379a00000000000000000000000000000000000000000000000000000000081526004016111509061534f565b60405180910390fd5b5080806111659061539e565b9150506110b2565b50600a60008873ffffffffffffffffffffffffffffffffffffffff1673ffffffffffffffffffffffffffffffffffffffff1681526020019081526020016000206040518060c001604052808a81526020013373ffffffffffffffffffffffffffffffffffffffff1681526020018781526020018581526020018481526020018873ffffffffffffffffffffffffffffffffffffffff1681525090806001815401808255809150506001900390600052602060002090600602016000909190919091506000820151816000015560208201518160010160006101000a81548173ffffffffffffffffffffffffffffffffffffffff021916908373ffffffffffffffffffffffffffffffffffffffff16021790555060408201518160020190816112959190614e65565b50606082015181600301556080820151816004015560a08201518160050160006101000a81548173ffffffffffffffffffffffffffffffffffffffff021916908373ffffffffffffffffffffffffffffffffffffffff16021790555050506001600b866040516113059190615153565b908152602001604051809103902060006101000a81548160ff0219169083151502179055508573ffffffffffffffffffffffffffffffffffffffff166108fc349081150290604051600060405180830381858888f19350505050158015611370573d6000803e3d6000fd5b50877fcae9ef8d492df0213f1333f0047b1aa6e0364aecccb597a0057f235ac41066ac338989896040516113a794939291906153e6565b60405180910390a25050505050505050565b600080600090505b6003600085815260200190815260200160002060080180549050811015611484578273ffffffffffffffffffffffffffffffffffffffff16600360008681526020019081526020016000206008018281548110611421576114206152ae565b5b9060005260206000200160009054906101000a900473ffffffffffffffffffffffffffffffffffffffff1673ffffffffffffffffffffffffffffffffffffffff160361147157600191505061148a565b808061147c9061539e565b9150506113c1565b50600090505b92915050565b600160003373ffffffffffffffffffffffffffffffffffffffff1673ffffffffffffffffffffffffffffffffffffffff16815260200190815260200160002060040160009054906101000a900460ff1661151f576040517f08c379a000000000000000000000000000000000000000000000000000000000815260040161151690614ae9565b60405180910390fd5b600080600281111561153457611533613d77565b5b600160003373ffffffffffffffffffffffffffffffffffffffff1673ffffffffffffffffffffffffffffffffffffffff16815260200190815260200160002060020160009054906101000a900460ff16600281111561159657611595613d77565b5b146115d6576040517f08c379a00000000000000000000000000000000000000000000000000000000081526004016115cd90614b55565b60405180910390fd5b6003600084815260200190815260200160002060090160009054906101000a900460ff16611639576040517f08c379a000000000000000000000000000000000000000000000000000000000815260040161163090614bc1565b60405180910390fd5b60018081111561164c5761164b613d77565b5b6003600085815260200190815260200160002060030160009054906101000a900460ff16600181111561168257611681613d77565b5b036116c2576040517f08c379a00000000000000000000000000000000000000000000000000000000081526004016116b99061547e565b60405180910390fd5b6003600084815260200190815260200160002060030160009054906101000a900460ff1660018111156116f8576116f7613d77565b5b82600181111561170b5761170a613d77565b5b0361174b576040517f08c379a0000000000000000000000000000000000000000000000000000000008152600401611742906154ea565b60405180910390fd5b816003600085815260200190815260200160002060030160006101000a81548160ff0219169083600181111561178457611783613d77565b5b0217905550505050565b6002818154811061179e57600080fd5b906000526020600020016000915054906101000a900473ffffffffffffffffffffffffffffffffffffffff1681565b60006117d882613b0b565b611817576040517f08c379a000000000000000000000000000000000000000000000000000000000815260040161180e90615556565b60405180910390fd5b6000805b60058054905081101561190e5783805190602001206003600060058481548110611848576118476152ae565b5b906000526020600020015481526020019081526020016000206005016040516118719190615619565b6040518091039020036118fb576000600181111561189257611891613d77565b5b60036000600584815481106118aa576118a96152ae565b5b9060005260206000200154815260200190815260200160002060030160009054906101000a900460ff1660018111156118e6576118e5613d77565b5b036118fa5781806118f69061539e565b9250505b5b80806119069061539e565b91505061181b565b5080915050919050565b600160003373ffffffffffffffffffffffffffffffffffffffff1673ffffffffffffffffffffffffffffffffffffffff16815260200190815260200160002060040160009054906101000a900460ff166119a7576040517f08c379a000000000000000000000000000000000000000000000000000000000815260040161199e90614ae9565b60405180910390fd5b60018060028111156119bc576119bb613d77565b5b600160003373ffffffffffffffffffffffffffffffffffffffff1673ffffffffffffffffffffffffffffffffffffffff16815260200190815260200160002060020160009054906101000a900460ff166002811115611a1e57611a1d613d77565b5b14611a5e576040517f08c379a0000000000000000000000000000000000000000000000000000000008152600401611a5590614b55565b60405180910390fd5b60008911611aa1576040517f08c379a0000000000000000000000000000000000000000000000000000000008152600401611a989061567c565b60405180910390fd5b60008811611ae4576040517f08c379a0000000000000000000000000000000000000000000000000000000008152600401611adb906156e8565b60405180910390fd5b60008b8b905011611b2a576040517f08c379a0000000000000000000000000000000000000000000000000000000008152600401611b2190615754565b60405180910390fd5b60008787905011611b70576040517f08c379a0000000000000000000000000000000000000000000000000000000008152600401611b67906157c0565b60405180910390fd5b60008383905011611bb6576040517f08c379a0000000000000000000000000000000000000000000000000000000008152600401611bad9061582c565b60405180910390fd5b611c0385858080601f016020809104026020016040519081016040528093929190818152602001838380828437600081840152601f19601f82011690508083019250505050505050613b0b565b611c42576040517f08c379a0000000000000000000000000000000000000000000000000000000008152600401611c3990615556565b60405180910390fd5b60046000815480929190611c559061539e565b9190505550600060128a10611ce35760328a11611ca7576040518060400160405280600381526020017f4c6f770000000000000000000000000000000000000000000000000000000000815250611cde565b6040518060400160405280600681526020017f4d656469756d00000000000000000000000000000000000000000000000000008152505b611d1a565b6040518060400160405280600481526020017f48696768000000000000000000000000000000000000000000000000000000008152505b90506040518061014001604052808d8d8080601f016020809104026020016040519081016040528093929190818152602001838380828437600081840152601f19601f8201169050808301925050505050505081526020018b81526020018a815260200160006001811115611d9257611d91613d77565b5b815260200189898080601f016020809104026020016040519081016040528093929190818152602001838380828437600081840152601f19601f82011690508083019250505050505050815260200187878080601f016020809104026020016040519081016040528093929190818152602001838380828437600081840152601f19601f82011690508083019250505050505050815260200185858080601f016020809104026020016040519081016040528093929190818152602001838380828437600081840152601f19601f820116905080830192505050505050508152602001828152602001600067ffffffffffffffff811115611e9657611e95613f34565b5b604051908082528060200260200182016040528015611ec45781602001602082028036833780820191505090505b508152602001600115158152506003600060045481526020019081526020016000206000820151816000019081611efb9190614e65565b50602082015181600101556040820151816002015560608201518160030160006101000a81548160ff02191690836001811115611f3b57611f3a613d77565b5b02179055506080820151816004019081611f559190614e65565b5060a0820151816005019081611f6b9190614e65565b5060c0820151816006019081611f819190614e65565b5060e0820151816007019081611f979190614e65565b50610100820151816008019080519060200190611fb5929190613b88565b506101208201518160090160006101000a81548160ff02191690831515021790555090505060056004549080600181540180825580915050600190039060005260206000200160009091909190915055505050505050505050505050565b606080600060068054905067ffffffffffffffff81111561203757612036613f34565b5b6040519080825280602002602001820160405280156120655781602001602082028036833780820191505090505b509050600060068054905067ffffffffffffffff81111561208957612088613f34565b5b6040519080825280602002602001820160405280156120bc57816020015b60608152602001906001900390816120a75790505b50905060005b60068054905081101561227557600681815481106120e3576120e26152ae565b5b9060005260206000200180546120f890614a6c565b80601f016020809104026020016040519081016040528092919081815260200182805461212490614a6c565b80156121715780601f1061214657610100808354040283529160200191612171565b820191906000526020600020905b81548152906001019060200180831161215457829003601f168201915b5050505050828281518110612189576121886152ae565b5b6020026020010181905250612243600682815481106121ab576121aa6152ae565b5b9060005260206000200180546121c090614a6c565b80601f01602080910402602001604051908101604052809291908181526020018280546121ec90614a6c565b80156122395780601f1061220e57610100808354040283529160200191612239565b820191906000526020600020905b81548152906001019060200180831161221c57829003601f168201915b50505050506117cd565b838281518110612256576122556152ae565b5b602002602001018181525050808061226d9061539e565b9150506120c2565b5060005b815181101561242f576000600182612291919061584c565b90505b825181101561241b576000876122e0578482815181106122b7576122b66152ae565b5b60200260200101518584815181106122d2576122d16152ae565b5b602002602001015111612318565b8482815181106122f3576122f26152ae565b5b602002602001015185848151811061230e5761230d6152ae565b5b6020026020010151105b9050801561240757848281518110612333576123326152ae565b5b602002602001015185848151811061234e5761234d6152ae565b5b6020026020010151868581518110612369576123686152ae565b5b60200260200101878581518110612383576123826152ae565b5b60200260200101828152508281525050508382815181106123a7576123a66152ae565b5b60200260200101518484815181106123c2576123c16152ae565b5b60200260200101518585815181106123dd576123dc6152ae565b5b602002602001018685815181106123f7576123f66152ae565b5b6020026020010182905282905250505b5080806124139061539e565b915050612294565b5080806124279061539e565b915050612279565b508082935093505050915091565b600b818051602081018201805184825260208301602085012081835280955050505050506000915054906101000a900460ff1681565b60076020528060005260406000206000915090508060000154908060010160009054906101000a900473ffffffffffffffffffffffffffffffffffffffff16908060020180546124c290614a6c565b80601f01602080910402602001604051908101604052809291908181526020018280546124ee90614a6c565b801561253b5780601f106125105761010080835404028352916020019161253b565b820191906000526020600020905b81548152906001019060200180831161251e57829003601f168201915b5050505050908060030160009054906101000a900460ff16905084565b60008054906101000a900473ffffffffffffffffffffffffffffffffffffffff1681565b600160003373ffffffffffffffffffffffffffffffffffffffff1673ffffffffffffffffffffffffffffffffffffffff16815260200190815260200160002060040160009054906101000a900460ff1661260b576040517f08c379a000000000000000000000000000000000000000000000000000000000815260040161260290614ae9565b60405180910390fd5b60008060028111156126205761261f613d77565b5b600160003373ffffffffffffffffffffffffffffffffffffffff1673ffffffffffffffffffffffffffffffffffffffff16815260200190815260200160002060020160009054906101000a900460ff16600281111561268257612681613d77565b5b146126c2576040517f08c379a00000000000000000000000000000000000000000000000000000000081526004016126b990614b55565b60405180910390fd5b6003600084815260200190815260200160002060090160009054906101000a900460ff16612725576040517f08c379a000000000000000000000000000000000000000000000000000000000815260040161271c90614bc1565b60405180910390fd5b60028081111561273857612737613d77565b5b600160008473ffffffffffffffffffffffffffffffffffffffff1673ffffffffffffffffffffffffffffffffffffffff16815260200190815260200160002060020160009054906101000a900460ff16600281111561279a57612799613d77565b5b146127da576040517f08c379a00000000000000000000000000000000000000000000000000000000081526004016127d190615222565b60405180910390fd5b6127e483836113b9565b15612824576040517f08c379a000000000000000000000000000000000000000000000000000000000815260040161281b906158cc565b60405180910390fd5b60036000848152602001908152602001600020600801829080600181540180825580915050600190039060005260206000200160009091909190916101000a81548173ffffffffffffffffffffffffffffffffffffffff021916908373ffffffffffffffffffffffffffffffffffffffff160217905550505050565b60036020528060005260406000206000915090508060000180546128c390614a6c565b80601f01602080910402602001604051908101604052809291908181526020018280546128ef90614a6c565b801561293c5780601f106129115761010080835404028352916020019161293c565b820191906000526020600020905b81548152906001019060200180831161291f57829003601f168201915b5050505050908060010154908060020154908060030160009054906101000a900460ff169080600401805461297090614a6c565b80601f016020809104026020016040519081016040528092919081815260200182805461299c90614a6c565b80156129e95780601f106129be576101008083540402835291602001916129e9565b820191906000526020600020905b8154815290600101906020018083116129cc57829003601f168201915b5050505050908060050180546129fe90614a6c565b80601f0160208091040260200160405190810160405280929190818152602001828054612a2a90614a6c565b8015612a775780601f10612a4c57610100808354040283529160200191612a77565b820191906000526020600020905b815481529060010190602001808311612a5a57829003601f168201915b505050505090806006018054612a8c90614a6c565b80601f0160208091040260200160405190810160405280929190818152602001828054612ab890614a6c565b8015612b055780601f10612ada57610100808354040283529160200191612b05565b820191906000526020600020905b815481529060010190602001808311612ae857829003601f168201915b505050505090806007018054612b1a90614a6c565b80601f0160208091040260200160405190810160405280929190818152602001828054612b4690614a6c565b8015612b935780601f10612b6857610100808354040283529160200191612b93565b820191906000526020600020905b815481529060010190602001808311612b7657829003601f168201915b5050505050908060090160009054906101000a900460ff16905089565b600a6020528160005260406000208181548110612bcc57600080fd5b9060005260206000209060060201600091509150508060000154908060010160009054906101000a900473ffffffffffffffffffffffffffffffffffffffff1690806002018054612c1c90614a6c565b80601f0160208091040260200160405190810160405280929190818152602001828054612c4890614a6c565b8015612c955780601f10612c6a57610100808354040283529160200191612c95565b820191906000526020600020905b815481529060010190602001808311612c7857829003601f168201915b5050505050908060030154908060040154908060050160009054906101000a900473ffffffffffffffffffffffffffffffffffffffff16905086565b6060600a60008373ffffffffffffffffffffffffffffffffffffffff1673ffffffffffffffffffffffffffffffffffffffff168152602001908152602001600020805480602002602001604051908101604052809291908181526020016000905b82821015612ec057838290600052602060002090600602016040518060c0016040529081600082015481526020016001820160009054906101000a900473ffffffffffffffffffffffffffffffffffffffff1673ffffffffffffffffffffffffffffffffffffffff1673ffffffffffffffffffffffffffffffffffffffff168152602001600282018054612dc590614a6c565b80601f0160208091040260200160405190810160405280929190818152602001828054612df190614a6c565b8015612e3e5780601f10612e1357610100808354040283529160200191612e3e565b820191906000526020600020905b815481529060010190602001808311612e2157829003601f168201915b5050505050815260200160038201548152602001600482015481526020016005820160009054906101000a900473ffffffffffffffffffffffffffffffffffffffff1673ffffffffffffffffffffffffffffffffffffffff1673ffffffffffffffffffffffffffffffffffffffff168152505081526020019060010190612d32565b505050509050919050565b600160003373ffffffffffffffffffffffffffffffffffffffff1673ffffffffffffffffffffffffffffffffffffffff16815260200190815260200160002060040160009054906101000a900460ff1615612f5b576040517f08c379a0000000000000000000000000000000000000000000000000000000008152600401612f5290615938565b60405180910390fd5b60008411612f9e576040517f08c379a0000000000000000000000000000000000000000000000000000000008152600401612f95906159a4565b60405180910390fd5b6000835111612fe2576040517f08c379a0000000000000000000000000000000000000000000000000000000008152600401612fd990615754565b60405180910390fd5b6000815111613026576040517f08c379a000000000000000000000000000000000000000000000000000000000815260040161301d90615a10565b60405180910390fd5b6040518060a001604052808581526020018481526020018360028111156130505761304f613d77565b5b815260200182815260200160011515815250600160003373ffffffffffffffffffffffffffffffffffffffff1673ffffffffffffffffffffffffffffffffffffffff1681526020019081526020016000206000820151816000015560208201518160010190816130c09190614e65565b5060408201518160020160006101000a81548160ff021916908360028111156130ec576130eb613d77565b5b021790555060608201518160030190816131069190614e65565b5060808201518160040160006101000a81548160ff0219169083151502179055509050506002339080600181540180825580915050600190039060005260206000200160009091909190916101000a81548173ffffffffffffffffffffffffffffffffffffffff021916908373ffffffffffffffffffffffffffffffffffffffff160217905550600060028111156131a1576131a0613d77565b5b8260028111156131b4576131b3613d77565b5b03613275576001600960003373ffffffffffffffffffffffffffffffffffffffff1673ffffffffffffffffffffffffffffffffffffffff16815260200190815260200160002060006101000a81548160ff0219169083151502179055506008339080600181540180825580915050600190039060005260206000200160009091909190916101000a81548173ffffffffffffffffffffffffffffffffffffffff021916908373ffffffffffffffffffffffffffffffffffffffff1602179055505b50505050565b600080829050600b8151146132945760009150506136b9565b7f3a00000000000000000000000000000000000000000000000000000000000000816002815181106132c9576132c86152ae565b5b602001015160f81c60f81b7effffffffffffffffffffffffffffffffffffffffffffffffffffffffffffff191614158061336357507f2d0000000000000000000000000000000000000000000000000000000000000081600581518110613333576133326152ae565b5b602001015160f81c60f81b7effffffffffffffffffffffffffffffffffffffffffffffffffffffffffffff191614155b806133ce57507f3a000000000000000000000000000000000000000000000000000000000000008160088151811061339e5761339d6152ae565b5b602001015160f81c60f81b7effffffffffffffffffffffffffffffffffffffffffffffffffffffffffffff191614155b156133dd5760009150506136b9565b60006030826001815181106133f5576133f46152ae565b5b602001015160f81c60f81b60f81c61340d9190615a3d565b600a603084600081518110613425576134246152ae565b5b602001015160f81c60f81b60f81c61343d9190615a3d565b6134479190615a72565b6134519190615aad565b60ff169050600060308360048151811061346e5761346d6152ae565b5b602001015160f81c60f81b60f81c6134869190615a3d565b600a60308560038151811061349e5761349d6152ae565b5b602001015160f81c60f81b60f81c6134b69190615a3d565b6134c09190615a72565b6134ca9190615aad565b60ff16905060006030846007815181106134e7576134e66152ae565b5b602001015160f81c60f81b60f81c6134ff9190615a3d565b600a603086600681518110613517576135166152ae565b5b602001015160f81c60f81b60f81c61352f9190615a3d565b6135399190615a72565b6135439190615aad565b60ff1690506000603085600a815181106135605761355f6152ae565b5b602001015160f81c60f81b60f81c6135789190615a3d565b600a6030876009815181106135905761358f6152ae565b5b602001015160f81c60f81b60f81c6135a89190615a3d565b6135b29190615a72565b6135bc9190615aad565b60ff16905060178411806135d05750601782115b156135e3576000955050505050506136b9565b603b8311806135f25750603b81115b15613605576000955050505050506136b9565b6000600a846136149190615b11565b14158061362e57506000600a8261362b9190615b11565b14155b15613641576000955050505050506136b9565b603c600a84613650919061584c565b61365a9190615b11565b811461366e576000955050505050506136b9565b603c600a8461367d919061584c565b101561368a57600061368d565b60015b60ff168461369b919061584c565b82146136af576000955050505050506136b9565b6001955050505050505b919050565b6000806000839050600b81511461370a576040517f08c379a000000000000000000000000000000000000000000000000000000000815260040161370190615b8e565b60405180910390fd5b7f3a000000000000000000000000000000000000000000000000000000000000008160028151811061373f5761373e6152ae565b5b602001015160f81c60f81b7effffffffffffffffffffffffffffffffffffffffffffffffffffffffffffff19161480156137d857507f2d00000000000000000000000000000000000000000000000000000000000000816005815181106137a9576137a86152ae565b5b602001015160f81c60f81b7effffffffffffffffffffffffffffffffffffffffffffffffffffffffffffff1916145b801561384357507f3a0000000000000000000000000000000000000000000000000000000000000081600881518110613814576138136152ae565b5b602001015160f81c60f81b7effffffffffffffffffffffffffffffffffffffffffffffffffffffffffffff1916145b613882576040517f08c379a00000000000000000000000000000000000000000000000000000000081526004016138799061528e565b60405180910390fd5b600060308260018151811061389a576138996152ae565b5b602001015160f81c60f81b60f81c6138b29190615a3d565b600a6030846000815181106138ca576138c96152ae565b5b602001015160f81c60f81b60f81c6138e29190615a3d565b6138ec9190615a72565b6138f69190615aad565b60ff1690506000603083600481518110613913576139126152ae565b5b602001015160f81c60f81b60f81c61392b9190615a3d565b600a603085600381518110613943576139426152ae565b5b602001015160f81c60f81b60f81c61395b9190615a3d565b6139659190615a72565b61396f9190615aad565b60ff169050600060308460078151811061398c5761398b6152ae565b5b602001015160f81c60f81b60f81c6139a49190615a3d565b600a6030866006815181106139bc576139bb6152ae565b5b602001015160f81c60f81b60f81c6139d49190615a3d565b6139de9190615a72565b6139e89190615aad565b60ff1690506000603085600a81518110613a0557613a046152ae565b5b602001015160f81c60f81b60f81c613a1d9190615a3d565b600a603087600981518110613a3557613a346152ae565b5b602001015160f81c60f81b60f81c613a4d9190615a3d565b613a579190615a72565b613a619190615aad565b60ff169050601884108015613a765750603c83105b8015613a825750601882105b8015613a8e5750603c81105b613acd576040517f08c379a0000000000000000000000000000000000000000000000000000000008152600401613ac490615bfa565b60405180910390fd5b82603c85613adb9190615c1a565b613ae5919061584c565b965080603c83613af59190615c1a565b613aff919061584c565b95505050505050915091565b600080600090505b600680549050811015613b7d57828051906020012060068281548110613b3c57613b3b6152ae565b5b90600052602060002001604051613b539190615619565b604051809103902003613b6a576001915050613b83565b8080613b759061539e565b915050613b13565b50600090505b919050565b828054828255906000526020600020908101928215613c01579160200282015b82811115613c005782518260006101000a81548173ffffffffffffffffffffffffffffffffffffffff021916908373ffffffffffffffffffffffffffffffffffffffff16021790555091602001919060010190613ba8565b5b509050613c0e9190613c12565b5090565b5b80821115613c2b576000816000905550600101613c13565b5090565b6000604051905090565b600080fd5b600080fd5b600073ffffffffffffffffffffffffffffffffffffffff82169050919050565b6000613c6e82613c43565b9050919050565b613c7e81613c63565b8114613c8957600080fd5b50565b600081359050613c9b81613c75565b92915050565b600060208284031215613cb757613cb6613c39565b5b6000613cc584828501613c8c565b91505092915050565b6000819050919050565b613ce181613cce565b82525050565b600081519050919050565b600082825260208201905092915050565b60005b83811015613d21578082015181840152602081019050613d06565b60008484015250505050565b6000601f19601f8301169050919050565b6000613d4982613ce7565b613d538185613cf2565b9350613d63818560208601613d03565b613d6c81613d2d565b840191505092915050565b7f4e487b7100000000000000000000000000000000000000000000000000000000600052602160045260246000fd5b60038110613db757613db6613d77565b5b50565b6000819050613dc882613da6565b919050565b6000613dd882613dba565b9050919050565b613de881613dcd565b82525050565b60008115159050919050565b613e0381613dee565b82525050565b600060a082019050613e1e6000830188613cd8565b8181036020830152613e308187613d3e565b9050613e3f6040830186613ddf565b8181036060830152613e518185613d3e565b9050613e606080830184613dfa565b9695505050505050565b613e7381613cce565b8114613e7e57600080fd5b50565b600081359050613e9081613e6a565b92915050565b600060208284031215613eac57613eab613c39565b5b6000613eba84828501613e81565b91505092915050565b613ecc81613c63565b82525050565b6000602082019050613ee76000830184613ec3565b92915050565b60006020820190508181036000830152613f078184613d3e565b905092915050565b6000602082019050613f246000830184613cd8565b92915050565b600080fd5b600080fd5b7f4e487b7100000000000000000000000000000000000000000000000000000000600052604160045260246000fd5b613f6c82613d2d565b810181811067ffffffffffffffff82111715613f8b57613f8a613f34565b5b80604052505050565b6000613f9e613c2f565b9050613faa8282613f63565b919050565b600067ffffffffffffffff821115613fca57613fc9613f34565b5b613fd382613d2d565b9050602081019050919050565b82818337600083830152505050565b6000614002613ffd84613faf565b613f94565b90508281526020810184848401111561401e5761401d613f2f565b5b614029848285613fe0565b509392505050565b600082601f83011261404657614045613f2a565b5b8135614056848260208601613fef565b91505092915050565b6000806040838503121561407657614075613c39565b5b600061408485828601613e81565b925050602083013567ffffffffffffffff8111156140a5576140a4613c3e565b5b6140b185828601614031565b9150509250929050565b60006020820190506140d06000830184613dfa565b92915050565b600080600080608085870312156140f0576140ef613c39565b5b60006140fe87828801613e81565b945050602061410f87828801613c8c565b935050604061412087828801613c8c565b925050606085013567ffffffffffffffff81111561414157614140613c3e565b5b61414d87828801614031565b91505092959194509250565b600080604083850312156141705761416f613c39565b5b600061417e85828601613e81565b925050602061418f85828601613c8c565b9150509250929050565b600281106141a657600080fd5b50565b6000813590506141b881614199565b92915050565b600080604083850312156141d5576141d4613c39565b5b60006141e385828601613e81565b92505060206141f4858286016141a9565b9150509250929050565b60006020828403121561421457614213613c39565b5b600082013567ffffffffffffffff81111561423257614231613c3e565b5b61423e84828501614031565b91505092915050565b600080fd5b600080fd5b60008083601f84011261426757614266613f2a565b5b8235905067ffffffffffffffff81111561428457614283614247565b5b6020830191508360018202830111156142a05761429f61424c565b5b9250929050565b60008060008060008060008060008060c08b8d0312156142ca576142c9613c39565b5b60008b013567ffffffffffffffff8111156142e8576142e7613c3e565b5b6142f48d828e01614251565b9a509a505060206143078d828e01613e81565b98505060406143188d828e01613e81565b97505060608b013567ffffffffffffffff81111561433957614338613c3e565b5b6143458d828e01614251565b965096505060808b013567ffffffffffffffff81111561436857614367613c3e565b5b6143748d828e01614251565b945094505060a08b013567ffffffffffffffff81111561439757614396613c3e565b5b6143a38d828e01614251565b92509250509295989b9194979a5092959850565b6143c081613dee565b81146143cb57600080fd5b50565b6000813590506143dd816143b7565b92915050565b6000602082840312156143f9576143f8613c39565b5b6000614407848285016143ce565b91505092915050565b600081519050919050565b600082825260208201905092915050565b6000819050602082019050919050565b600082825260208201905092915050565b600061445882613ce7565b614462818561443c565b9350614472818560208601613d03565b61447b81613d2d565b840191505092915050565b6000614492838361444d565b905092915050565b6000602082019050919050565b60006144b282614410565b6144bc818561441b565b9350836020820285016144ce8561442c565b8060005b8581101561450a57848403895281516144eb8582614486565b94506144f68361449a565b925060208a019950506001810190506144d2565b50829750879550505050505092915050565b600081519050919050565b600082825260208201905092915050565b6000819050602082019050919050565b61455181613cce565b82525050565b60006145638383614548565b60208301905092915050565b6000602082019050919050565b60006145878261451c565b6145918185614527565b935061459c83614538565b8060005b838110156145cd5781516145b48882614557565b97506145bf8361456f565b9250506001810190506145a0565b5085935050505092915050565b600060408201905081810360008301526145f481856144a7565b90508181036020830152614608818461457c565b90509392505050565b60006080820190506146266000830187613cd8565b6146336020830186613ec3565b81810360408301526146458185613d3e565b90506146546060830184613dfa565b95945050505050565b6002811061466e5761466d613d77565b5b50565b600081905061467f8261465d565b919050565b600061468f82614671565b9050919050565b61469f81614684565b82525050565b60006101208201905081810360008301526146c0818c613d3e565b90506146cf602083018b613cd8565b6146dc604083018a613cd8565b6146e96060830189614696565b81810360808301526146fb8188613d3e565b905081810360a083015261470f8187613d3e565b905081810360c08301526147238186613d3e565b905081810360e08301526147378185613d3e565b9050614747610100830184613dfa565b9a9950505050505050505050565b6000806040838503121561476c5761476b613c39565b5b600061477a85828601613c8c565b925050602061478b85828601613e81565b9150509250929050565b600060c0820190506147aa6000830189613cd8565b6147b76020830188613ec3565b81810360408301526147c98187613d3e565b90506147d86060830186613cd8565b6147e56080830185613cd8565b6147f260a0830184613ec3565b979650505050505050565b600081519050919050565b600082825260208201905092915050565b6000819050602082019050919050565b61483281613c63565b82525050565b600060c0830160008301516148506000860182614548565b5060208301516148636020860182614829565b506040830151848203604086015261487b828261444d565b91505060608301516148906060860182614548565b5060808301516148a36080860182614548565b5060a08301516148b660a0860182614829565b508091505092915050565b60006148cd8383614838565b905092915050565b6000602082019050919050565b60006148ed826147fd565b6148f78185614808565b93508360208202850161490985614819565b8060005b85811015614945578484038952815161492685826148c1565b9450614931836148d5565b925060208a0199505060018101905061490d565b50829750879550505050505092915050565b6000602082019050818103600083015261497181846148e2565b905092915050565b6003811061498657600080fd5b50565b60008135905061499881614979565b92915050565b600080600080608085870312156149b8576149b7613c39565b5b60006149c687828801613e81565b945050602085013567ffffffffffffffff8111156149e7576149e6613c3e565b5b6149f387828801614031565b9350506040614a0487828801614989565b925050606085013567ffffffffffffffff811115614a2557614a24613c3e565b5b614a3187828801614031565b91505092959194509250565b7f4e487b7100000000000000000000000000000000000000000000000000000000600052602260045260246000fd5b60006002820490506001821680614a8457607f821691505b602082108103614a9757614a96614a3d565b5b50919050565b7f55736572206e6f74207265676973746572656400000000000000000000000000600082015250565b6000614ad3601383613cf2565b9150614ade82614a9d565b602082019050919050565b60006020820190508181036000830152614b0281614ac6565b9050919050565b7f556e617574686f72697a656420726f6c65000000000000000000000000000000600082015250565b6000614b3f601183613cf2565b9150614b4a82614b09565b602082019050919050565b60006020820190508181036000830152614b6e81614b32565b9050919050565b7f4361736520646f6573206e6f7420657869737400000000000000000000000000600082015250565b6000614bab601383613cf2565b9150614bb682614b75565b602082019050919050565b60006020820190508181036000830152614bda81614b9e565b9050919050565b7f416c7265616479206d61726b656420666f756e64000000000000000000000000600082015250565b6000614c17601483613cf2565b9150614c2282614be1565b602082019050919050565b60006020820190508181036000830152614c4681614c0a565b9050919050565b7f416c7265616479207265706f7274656420616e64207265766965776564000000600082015250565b6000614c83601d83613cf2565b9150614c8e82614c4d565b602082019050919050565b60006020820190508181036000830152614cb281614c76565b9050919050565b60008190508160005260206000209050919050565b60006020601f8301049050919050565b600082821b905092915050565b600060088302614d1b7fffffffffffffffffffffffffffffffffffffffffffffffffffffffffffffffff82614cde565b614d258683614cde565b95508019841693508086168417925050509392505050565b6000819050919050565b6000614d62614d5d614d5884613cce565b614d3d565b613cce565b9050919050565b6000819050919050565b614d7c83614d47565b614d90614d8882614d69565b848454614ceb565b825550505050565b600090565b614da5614d98565b614db0818484614d73565b505050565b5b81811015614dd457614dc9600082614d9d565b600181019050614db6565b5050565b601f821115614e1957614dea81614cb9565b614df384614cce565b81016020851015614e02578190505b614e16614e0e85614cce565b830182614db5565b50505b505050565b600082821c905092915050565b6000614e3c60001984600802614e1e565b1980831691505092915050565b6000614e558383614e2b565b9150826002028217905092915050565b614e6e82613ce7565b67ffffffffffffffff811115614e8757614e86613f34565b5b614e918254614a6c565b614e9c828285614dd8565b600060209050601f831160018114614ecf5760008415614ebd578287015190505b614ec78582614e49565b865550614f2f565b601f198416614edd86614cb9565b60005b82811015614f0557848901518255600182019150602085019450602081019050614ee0565b86831015614f225784890151614f1e601f891682614e2b565b8355505b6001600288020188555050505b505050505050565b6000604082019050614f4c6000830185613ec3565b8181036020830152614f5e8184613d3e565b90509392505050565b7f496e76616c69642061646d696e00000000000000000000000000000000000000600082015250565b6000614f9d600d83613cf2565b9150614fa882614f67565b602082019050919050565b60006020820190508181036000830152614fcc81614f90565b9050919050565b7f4d696e696d756d20302e30312065746865722072657175697265640000000000600082015250565b6000615009601b83613cf2565b915061501482614fd3565b602082019050919050565b6000602082019050818103600083015261503881614ffc565b9050919050565b7f496e76616c696420636173650000000000000000000000000000000000000000600082015250565b6000615075600c83613cf2565b91506150808261503f565b602082019050919050565b600060208201905081810360008301526150a481615068565b9050919050565b7f506572736f6e20616c726561647920666f756e64000000000000000000000000600082015250565b60006150e1601483613cf2565b91506150ec826150ab565b602082019050919050565b60006020820190508181036000830152615110816150d4565b9050919050565b600081905092915050565b600061512d82613ce7565b6151378185615117565b9350615147818560208601613d03565b80840191505092915050565b600061515f8284615122565b915081905092915050565b7f536c6f7420737472696e6720616c726561647920757365640000000000000000600082015250565b60006151a0601883613cf2565b91506151ab8261516a565b602082019050919050565b600060208201905081810360008301526151cf81615193565b9050919050565b7f4e6f7420616e20696e76657374696761746f7200000000000000000000000000600082015250565b600061520c601383613cf2565b9150615217826151d6565b602082019050919050565b6000602082019050818103600083015261523b816151ff565b9050919050565b7f496e76616c696420736c6f7420666f726d617400000000000000000000000000600082015250565b6000615278601383613cf2565b915061528382615242565b602082019050919050565b600060208201905081810360008301526152a78161526b565b9050919050565b7f4e487b7100000000000000000000000000000000000000000000000000000000600052603260045260246000fd5b7f54696d6520736c6f74206f7665726c6170732077697468206578697374696e6760008201527f206170706f696e746d656e740000000000000000000000000000000000000000602082015250565b6000615339602c83613cf2565b9150615344826152dd565b604082019050919050565b600060208201905081810360008301526153688161532c565b9050919050565b7f4e487b7100000000000000000000000000000000000000000000000000000000600052601160045260246000fd5b60006153a982613cce565b91507fffffffffffffffffffffffffffffffffffffffffffffffffffffffffffffffff82036153db576153da61536f565b5b600182019050919050565b60006080820190506153fb6000830187613ec3565b6154086020830186613ec3565b6154156040830185613ec3565b81810360608301526154278184613d3e565b905095945050505050565b7f416c726561647920666f756e642c2063616e6e6f742072657665727400000000600082015250565b6000615468601c83613cf2565b915061547382615432565b602082019050919050565b600060208201905081810360008301526154978161545b565b9050919050565b7f53746174757320756e6368616e67656400000000000000000000000000000000600082015250565b60006154d4601083613cf2565b91506154df8261549e565b602082019050919050565b60006020820190508181036000830152615503816154c7565b9050919050565b7f496e76616c6964206469766973696f6e00000000000000000000000000000000600082015250565b6000615540601083613cf2565b915061554b8261550a565b602082019050919050565b6000602082019050818103600083015261556f81615533565b9050919050565b600081905092915050565b60008190508160005260206000209050919050565b600081546155a381614a6c565b6155ad8186615576565b945060018216600081146155c857600181146155dd57615610565b60ff1983168652811515820286019350615610565b6155e685615581565b60005b83811015615608578154818901526001820191506020810190506155e9565b838801955050505b50505092915050565b60006156258284615596565b915081905092915050565b7f416765206d75737420626520706f736974697665000000000000000000000000600082015250565b6000615666601483613cf2565b915061567182615630565b602082019050919050565b6000602082019050818103600083015261569581615659565b9050919050565b7f486569676874206d75737420626520706f736974697665000000000000000000600082015250565b60006156d2601783613cf2565b91506156dd8261569c565b602082019050919050565b60006020820190508181036000830152615701816156c5565b9050919050565b7f4e616d652063616e6e6f7420626520656d707479000000000000000000000000600082015250565b600061573e601483613cf2565b915061574982615708565b602082019050919050565b6000602082019050818103600083015261576d81615731565b9050919050565b7f4465736372697074696f6e2063616e6e6f7420626520656d7074790000000000600082015250565b60006157aa601b83613cf2565b91506157b582615774565b602082019050919050565b600060208201905081810360008301526157d98161579d565b9050919050565b7f436f6e74616374206e756d6265722063616e6e6f7420626520656d7074790000600082015250565b6000615816601e83613cf2565b9150615821826157e0565b602082019050919050565b6000602082019050818103600083015261584581615809565b9050919050565b600061585782613cce565b915061586283613cce565b925082820190508082111561587a5761587961536f565b5b92915050565b7f416c72656164792061737369676e656400000000000000000000000000000000600082015250565b60006158b6601083613cf2565b91506158c182615880565b602082019050919050565b600060208201905081810360008301526158e5816158a9565b9050919050565b7f416c726561647920726567697374657265642100000000000000000000000000600082015250565b6000615922601383613cf2565b915061592d826158ec565b602082019050919050565b6000602082019050818103600083015261595181615915565b9050919050565b7f496e76616c6964204e4944000000000000000000000000000000000000000000600082015250565b600061598e600b83613cf2565b915061599982615958565b602082019050919050565b600060208201905081810360008301526159bd81615981565b9050919050565b7f416464726573732063616e6e6f7420626520656d707479000000000000000000600082015250565b60006159fa601783613cf2565b9150615a05826159c4565b602082019050919050565b60006020820190508181036000830152615a29816159ed565b9050919050565b600060ff82169050919050565b6000615a4882615a30565b9150615a5383615a30565b9250828203905060ff811115615a6c57615a6b61536f565b5b92915050565b6000615a7d82615a30565b9150615a8883615a30565b92508160ff0483118215151615615aa257615aa161536f565b5b828202905092915050565b6000615ab882615a30565b9150615ac383615a30565b9250828201905060ff811115615adc57615adb61536f565b5b92915050565b7f4e487b7100000000000000000000000000000000000000000000000000000000600052601260045260246000fd5b6000615b1c82613cce565b9150615b2783613cce565b925082615b3757615b36615ae2565b5b828206905092915050565b7f496e76616c696420736c6f74206c656e67746800000000000000000000000000600082015250565b6000615b78601383613cf2565b9150615b8382615b42565b602082019050919050565b60006020820190508181036000830152615ba781615b6b565b9050919050565b7f54696d652076616c7565206f7574206f662072616e6765000000000000000000600082015250565b6000615be4601783613cf2565b9150615bef82615bae565b602082019050919050565b60006020820190508181036000830152615c1381615bd7565b9050919050565b6000615c2582613cce565b9150615c3083613cce565b9250817fffffffffffffffffffffffffffffffffffffffffffffffffffffffffffffffff0483118215151615615c6957615c6861536f565b5b82820290509291505056fea26469706673582212207b0995b807a7226facd823838fedf388f6202061d958051efe1423ca58da2fd364736f6c63430008100033",
  "immutableReferences": {},
  "source": "pragma solidity >=0.7.0 <0.9.0;\r\n\r\ncontract MPMS {\r\n    enum Roles { Admin, Reporter, Investigator }\r\n    enum Status { Missing, Found }\r\n\r\n    address public contractOwner;\r\n\r\n    constructor() {\r\n        contractOwner = msg.sender;\r\n    }\r\n\r\n    struct UserData {\r\n        uint NID;\r\n        string username;\r\n        Roles role;\r\n        string userAddress;\r\n        bool registered;\r\n    }\r\n\r\n    mapping(address => UserData) public registeredUsers;\r\n    address[] public userAddresses;\r\n\r\n    // Modifier to check if caller is registered\r\n    modifier onlyRegistered() {\r\n        require(registeredUsers[msg.sender].registered, \"User not registered\");\r\n        _;\r\n    }\r\n\r\n    // Modifier for specific role access\r\n    modifier onlyRole(Roles _role) {\r\n        require(registeredUsers[msg.sender].role == _role, \"Unauthorized role\");\r\n        _;\r\n    }\r\n\r\n    function registerUser(\r\n        uint _nid, \r\n        string memory _name, \r\n        Roles _role, \r\n        string memory _address\r\n    ) public {\r\n        require(!registeredUsers[msg.sender].registered, \"Already registered!\");\r\n        require(_nid > 0, \"Invalid NID\");\r\n        require(bytes(_name).length > 0, \"Name cannot be empty\");\r\n        require(bytes(_address).length > 0, \"Address cannot be empty\");\r\n\r\n        registeredUsers[msg.sender] = UserData(_nid, _name, _role, _address, true);\r\n        userAddresses.push(msg.sender);\r\n\r\n        if (_role == Roles.Admin) {\r\n            isAdmin[msg.sender] = true;\r\n            admins.push(msg.sender);\r\n        }\r\n    }\r\n\r\n    struct MissingPerson {\r\n        string name;\r\n        uint age;\r\n        uint height;\r\n        Status status;\r\n        string description;\r\n        string division;\r\n        string contactNumber;\r\n        string urgencyLevel;\r\n        address[] investigators;\r\n        bool exists;\r\n    }\r\n\r\n    mapping(uint => MissingPerson) public missingCases;\r\n    uint private caseCounter;\r\n    uint[] public allCaseIds;\r\n\r\n    string[] public divisions = [\r\n        \"Dhaka\", \"Chattogram\", \"Khulna\", \"Rajshahi\", \r\n        \"Barisal\", \"Sylhet\", \"Rangpur\", \"Mymensingh\"\r\n    ];\r\n\r\n    function addMissingPerson(\r\n        string calldata _name, \r\n        uint _age, \r\n        uint _height,\r\n        string calldata _desc, \r\n        string calldata _division, \r\n        string calldata _contact\r\n    ) public onlyRegistered onlyRole(Roles.Reporter) {\r\n        require(_age > 0, \"Age must be positive\");\r\n        require(_height > 0, \"Height must be positive\");\r\n        require(bytes(_name).length > 0, \"Name cannot be empty\");\r\n        require(bytes(_desc).length > 0, \"Description cannot be empty\");\r\n        require(bytes(_contact).length > 0, \"Contact number cannot be empty\");\r\n        require(isValidDivision(_division), \"Invalid division\");\r\n\r\n        caseCounter++;\r\n        \r\n        string memory urgency = (_age < 18) ? \"High\" : (_age > 50) ? \"Medium\" : \"Low\";\r\n\r\n        missingCases[caseCounter] = MissingPerson({\r\n            name: _name,\r\n            age: _age,\r\n            height: _height,\r\n            status: Status.Missing,\r\n            description: _desc,\r\n            division: _division,\r\n            contactNumber: _contact,\r\n            urgencyLevel: urgency,\r\n            investigators: new address[](0),\r\n            exists: true\r\n        });\r\n\r\n        allCaseIds.push(caseCounter);\r\n    }\r\n\r\n    function updateStatus(\r\n        uint _caseId, \r\n        Status _newStatus\r\n    ) public onlyRegistered onlyRole(Roles.Admin) {\r\n        require(missingCases[_caseId].exists, \"Case does not exist\");\r\n        require(missingCases[_caseId].status != Status.Found, \"Already found, cannot revert\");\r\n        require(_newStatus != missingCases[_caseId].status, \"Status unchanged\");\r\n\r\n        missingCases[_caseId].status = _newStatus;\r\n    }\r\n\r\n    function assignInvestigator(\r\n        uint _caseId, \r\n        address _investigator\r\n    ) public onlyRegistered onlyRole(Roles.Admin) {\r\n        require(missingCases[_caseId].exists, \"Case does not exist\");\r\n        require(registeredUsers[_investigator].role == Roles.Investigator, \"Not an investigator\");\r\n        require(!isInvestigatorAssigned(_caseId, _investigator), \"Already assigned\");\r\n\r\n        missingCases[_caseId].investigators.push(_investigator);\r\n    }\r\n\r\n    function isInvestigatorAssigned(\r\n        uint _caseId, \r\n        address _investigator\r\n    ) public view returns (bool) {\r\n        for (uint i = 0; i < missingCases[_caseId].investigators.length; i++) {\r\n            if (missingCases[_caseId].investigators[i] == _investigator) {\r\n                return true;\r\n            }\r\n        }\r\n        return false;\r\n    }\r\n\r\n    function isValidDivision(string memory division) private view returns (bool) {\r\n        for (uint i = 0; i < divisions.length; i++) {\r\n            if (keccak256(bytes(divisions[i])) == keccak256(bytes(division))) {\r\n                return true;\r\n            }\r\n        }\r\n        return false;\r\n    }\r\n\r\n    function getMissingCountByDivision(string memory division) public view returns (uint) {\r\n        require(isValidDivision(division), \"Invalid division\");\r\n        \r\n        uint count = 0;\r\n        for (uint i = 0; i < allCaseIds.length; i++) {\r\n            if (keccak256(bytes(missingCases[allCaseIds[i]].division)) == keccak256(bytes(division))) {\r\n                if (missingCases[allCaseIds[i]].status == Status.Missing) {\r\n                    count++;\r\n                }\r\n            }\r\n        }\r\n        return count;\r\n    }\r\n\r\n    function getAllMissingCounts(bool sortDescending) public view returns (string[] memory, uint[] memory) {\r\n        uint[] memory counts = new uint[](divisions.length);\r\n        string[] memory sortedDivisions = new string[](divisions.length);\r\n        \r\n        // Create a copy of divisions array\r\n        for (uint i = 0; i < divisions.length; i++) {\r\n            sortedDivisions[i] = divisions[i];\r\n            counts[i] = getMissingCountByDivision(divisions[i]);\r\n        }\r\n\r\n        // Bubble sort\r\n        for (uint i = 0; i < sortedDivisions.length; i++) {\r\n            for (uint j = i + 1; j < sortedDivisions.length; j++) {\r\n                bool shouldSwap = sortDescending \r\n                    ? counts[i] < counts[j] \r\n                    : counts[i] > counts[j];\r\n                \r\n                if (shouldSwap) {\r\n                    // Swap counts\r\n                    (counts[i], counts[j]) = (counts[j], counts[i]);\r\n                    // Swap divisions\r\n                    (sortedDivisions[i], sortedDivisions[j]) = (sortedDivisions[j], sortedDivisions[i]);\r\n                }\r\n            }\r\n        }\r\n\r\n        return (sortedDivisions, counts);\r\n    }\r\n\r\n    struct Appointment {\r\n        uint caseId;\r\n        address reporter;\r\n        string slot;\r\n        uint256 startMinutes; // Added: Store time as minutes since midnight\r\n        uint256 endMinutes;   // Added: For overlap detection\r\n        address paidAdmin; // Track which admin received payment\r\n    }\r\n\r\n    struct FoundAlert {\r\n        uint caseId;\r\n        address investigator;\r\n        string note;\r\n        bool reviewed;\r\n    }\r\n\r\n    mapping(uint => FoundAlert) public foundAlerts;\r\n\r\n\r\n    address[] public admins;\r\n    mapping(address => bool) public isAdmin;\r\n    mapping(address => Appointment[]) public investigatorAppointments;\r\n    mapping(string => bool) public slotBooked;\r\n\r\n    function bookAppointment(\r\n        uint _caseId,\r\n        address _investigator,\r\n        address _selectedAdmin, // Reporter chooses admin\r\n        string memory _slot\r\n    ) public payable onlyRegistered onlyRole(Roles.Reporter) {\r\n        require(isAdmin[_selectedAdmin], \"Invalid admin\");\r\n        require(msg.value >= 0.01 ether, \"Minimum 0.01 ether required\");\r\n        require(missingCases[_caseId].exists, \"Invalid case\");\r\n        require(missingCases[_caseId].status == Status.Missing, \"Person already found\");\r\n        require(!slotBooked[_slot], \"Slot string already used\");\r\n        require(registeredUsers[_investigator].role == Roles.Investigator, \"Not an investigator\");\r\n        require(validateSlotFormat(_slot), \"Invalid slot format\");\r\n\r\n        // Convert slot to minutes for overlap check\r\n        (uint256 startMins, uint256 endMins) = parseSlotToMinutes(_slot);\r\n        \r\n        // Check for overlapping time slots (NEW)\r\n        Appointment[] storage appointments = investigatorAppointments[_investigator];\r\n        for (uint i = 0; i < appointments.length; i++) {\r\n            bool overlaps = (startMins < appointments[i].endMinutes) && \r\n                        (endMins > appointments[i].startMinutes);\r\n            require(!overlaps, \"Time slot overlaps with existing appointment\");\r\n        }\r\n\r\n        // Store appointment with minute values (NEW)\r\n        investigatorAppointments[_investigator].push(Appointment({\r\n            caseId: _caseId,\r\n            reporter: msg.sender,\r\n            paidAdmin: _selectedAdmin,\r\n            slot: _slot,\r\n            startMinutes: startMins,\r\n            endMinutes: endMins\r\n        }));\r\n\r\n        slotBooked[_slot] = true;\r\n\r\n        payable(_selectedAdmin).transfer(msg.value);\r\n\r\n        emit AppointmentBooked(_caseId, msg.sender, _investigator, _selectedAdmin, _slot);\r\n    \r\n    }\r\n\r\n    event AppointmentBooked(\r\n    uint indexed caseId,\r\n    address reporter,\r\n    address investigator,\r\n    address admin,\r\n    string slot\r\n\r\n    );\r\n\r\n    event FoundReported(uint indexed caseId, address investigator, string note);\r\n\r\n    // New helper function\r\n    function parseSlotToMinutes(string memory _slot) private pure returns (uint256 start, uint256 end) {\r\n        bytes memory b = bytes(_slot);\r\n        require(b.length == 11, \"Invalid slot length\");\r\n        require(b[2] == ':' && b[5] == '-' && b[8] == ':', \"Invalid slot format\");\r\n\r\n        uint startH = (uint8(b[0]) - 48) * 10 + (uint8(b[1]) - 48);\r\n        uint startM = (uint8(b[3]) - 48) * 10 + (uint8(b[4]) - 48);\r\n        uint endH = (uint8(b[6]) - 48) * 10 + (uint8(b[7]) - 48);\r\n        uint endM = (uint8(b[9]) - 48) * 10 + (uint8(b[10]) - 48);\r\n\r\n        require(startH < 24 && startM < 60 && endH < 24 && endM < 60, \"Time value out of range\");\r\n\r\n        start = startH * 60 + startM;\r\n        end = endH * 60 + endM;\r\n    }\r\n\r\n    // Modified validation to ensure proper slot sequencing\r\n    function validateSlotFormat(string memory _slot) private pure returns (bool) {\r\n        bytes memory b = bytes(_slot);\r\n        if (b.length != 11) return false;\r\n        if (b[2] != ':' || b[5] != '-' || b[8] != ':') return false;\r\n\r\n        uint startH = (uint8(b[0]) - 48) * 10 + (uint8(b[1]) - 48);\r\n        uint startM = (uint8(b[3]) - 48) * 10 + (uint8(b[4]) - 48);\r\n        uint endH = (uint8(b[6]) - 48) * 10 + (uint8(b[7]) - 48);\r\n        uint endM = (uint8(b[9]) - 48) * 10 + (uint8(b[10]) - 48);\r\n\r\n        // Validate time ranges\r\n        if (startH > 23 || endH > 23) return false;\r\n        if (startM > 59 || endM > 59) return false;\r\n\r\n        // Ensure proper 10-minute increment sequencing (NEW)\r\n        if (startM % 10 != 0 || endM % 10 != 0) return false;\r\n        if (endM != (startM + 10) % 60) return false;\r\n        if (endH != startH + (startM + 10 >= 60 ? 1 : 0)) return false;\r\n\r\n        return true;\r\n    }\r\n\r\n    function getInvestigatorSchedule(address _investigator) public view returns (Appointment[] memory) {\r\n        return investigatorAppointments[_investigator];\r\n    }\r\n\r\n    function reportFoundPerson(uint _caseId, string memory _note) public onlyRegistered onlyRole(Roles.Investigator) {\r\n        require(missingCases[_caseId].exists, \"Case does not exist\");\r\n        require(missingCases[_caseId].status == Status.Missing, \"Already marked found\");\r\n        require(!foundAlerts[_caseId].reviewed, \"Already reported and reviewed\");\r\n\r\n        foundAlerts[_caseId] = FoundAlert({\r\n            caseId: _caseId,\r\n            investigator: msg.sender,\r\n            note: _note,\r\n            reviewed: false\r\n        });\r\n\r\n        emit FoundReported(_caseId, msg.sender, _note);\r\n    }\r\n\r\n\r\n\r\n}\r\n\r\n",
  "sourcePath": "/home/vboxuser/MPMS-DApp/contracts/mpms.sol",
  "compiler": {
    "name": "solc",
    "version": "0.8.16+commit.07a7930e.Emscripten.clang"
  },
  "schemaVersion": "3.4.16",
  "updatedAt": "2025-05-08T00:31:02.979Z",
  "networkType": "ethereum",
  "devdoc": {
    "kind": "dev",
    "methods": {},
    "version": 1
  },
  "userdoc": {
    "kind": "user",
    "methods": {},
    "version": 1
  }
}